:100000000C94BB010C94CD010C94CD010C942D24C7
:100010000C949C170C94CD010C94CD010C94CD0143
:100020000C94CD010C94CD010C94CD010C94522074
:100030000C94CD010C94CD010C94CD010C94CD0108
:100040000C94D31F0C94CD010C94E7260C946927D3
:100050000C94CD010C94CD010C94CD010C94CD01E8
:100060000C94CD010C94CD010031063109310C31D5
:10007000113119312131BC31BC31BC312E3131311A
:100080003A314331BC31BC31BC31BC31BC31BC3103
:100090004F31593165316D3170317931823188316B
:1000A000BC31BC3191319A31A53186051911191134
:1000B00090059B05A605B1051911B5051911C305D4
:1000C0001911CD05D705E105191119111911F105FE
:1000D000FE050B061D271F27582758275827582786
:1000E000582758275827582758275827252727277C
:1000F00029272B272D272F27312733275827372725
:1001000039273B273D273F27412758274327084AC0
:10011000D73B3BCE016E84BCBFFDC12F3D6C74311B
:100120009ABD56833DDA3D00C77F11BED9E4BB4C72
:100130003E916BAAAABE000000803F05A84CCDB23C
:10014000D44EB93836A9020C50B9918688083CA61D
:10015000AAAA2ABE000000803F000D0A4772626C06
:1001600020312E3168205B27242720666F7220689B
:10017000656C705D0D0A00244E005B4F50543A00D0
:100180005B5645523A312E31682E32303139303893
:1001900032353A005B544C4F3A005B4739323A00F3
:1001A0003330003238005B4700204700204D0020EC
:1001B000530020460020540033382E005B47433A5A
:1001C00047005B484C503A24242024232024472015
:1001D000244920244E2024783D76616C20244E78DA
:1001E0003D6C696E6520244A3D6C696E6520245320
:1001F0004C50202443202458202448207E202120B5
:100200003F206374726C2D785D0D0A00536C656538
:1002100070696E6700526573746F72696E672073E0
:1002200070696E646C6500526573746F72696E6795
:100230002064656661756C74730050676D20456E4F
:100240006400436865636B204C696D697473004397
:100250006865636B20446F6F720044697361626C00
:10026000656400456E61626C656400436175746924
:100270006F6E3A20556E6C6F636B6564002724487F
:10028000277C2724582720746F20756E6C6F636B52
:1002900000526573657420746F20636F6E74696EAD
:1002A0007565005B4D53473A00414C41524D3A0051
:1002B0007C413A007C4F763A007C57434F3A007CB1
:1002C000506E3A007C46533A007C42663A007C57B6
:1002D000506F733A007C4D506F733A00536C6565F4
:1002E0007000446F6F723A00436865636B00416C45
:1002F00061726D00486F6D65004A6F6700486F6CF2
:10030000643A0052756E0049646C65006F6B0D0AAB
:10031000000D0A005B5052423A006572726F723AE9
:100320000000007A4300007A4300007A430000FA9C
:10033000430000FA430000FA4300A00C4700A00C61
:100340004700A00C47000048C3000048C300004815
:10035000C30A000019010AD7233C6F12033B0000B7
:100360007A440000000000000000C8410000FA4389
:10037000FA000000803F11241FBECFEFD8E0DEBF9F
:10038000CDBF27E0A0E0B1E001C01D92A136B207C9
:10039000E1F70E949F2C0C94733A0C940000BF92DA
:1003A000CF92DF92EF92FF920F931F93CF93DF9341
:1003B0007C01FC0102A513A5D4A5C5A5818980FFF8
:1003C00018C06091220170E080E090E00E94AF3799
:1003D0002AE037ED43E25CE30E945D399B01AC010A
:1003E000B8018D2F9C2F0E945D398B01D82FC92F0A
:1003F0002DC082FD17C06091210170E080E090E087
:100400000E94AF372AE037ED43E25CE30E945D399A
:100410009B01AC01B8018D2F9C2F0E945D398B018F
:10042000D82FC92FF701B6A0C7A0D0A4F1A42B2DB7
:100430003C2D4D2D5F2DB8018D2F9C2F0E941D3915
:10044000181624F40B2D1C2DDD2DCF2D20E030E0CF
:1004500040E85FE3B8018D2F9C2F0E941D391816CC
:1004600024F000E010E0D0E8CFE3B8018D2F9C2FFE
:10047000DF91CF911F910F91FF90EF90DF90CF9080
:10048000BF90089580911C0690913705981739F018
:1004900022E3829FC0011124895E9D4F089580E070
:1004A00090E008958CE1EAEFF1E0DF011D928A957A
:1004B000E9F710921C061092370581E080931B0625
:1004C0001092160208952F923F924F925F926F9270
:1004D0007F928F929F92AF92BF92CF92DF92EF92D4
:1004E000FF920F931F93CF93DF93C0913705C111F4
:1004F00001C0C0E1C150D0911602DC1709F41DC142
:10050000EC2EF12C22E3C29F80011124095E1D4FC5
:10051000F801A688B788C08CD18C628D738D848DCC
:10052000958D9B01AC010E940636F801268D378D12
:1005300040A151A10E945D394B018C019B01AC018E
:10054000B501C6010E94FB3687FD02C05401680157
:1005500082E38E9DF0018F9DF00D1124E95EFD4F29
:10056000C501D601828B938BA48BB58BC11101C0C1
:10057000C0E1C150DC1761F022E32E9DC0012F9D28
:10058000900D11249C01295E3D4F7901D2E333C0C7
:1005900080911C06D81360C00E94941F5DC0AC2ED1
:1005A000B12CDA9DC001DB9D900D1124FC01E95EA8
:1005B000FD4F6F01C11101C0C0E1C15080911C0607
:1005C0008C1302C00E94941FDA9D8001DB9D100DE8
:1005D0001124095E1D4FF80186889788A08CB18C84
:1005E000A501940162897389848995890E94FB36EB
:1005F000811106C0760180911602C813D0CF2CC09D
:10060000F801628D738D848D958D9B01AC010E94E4
:100610000636F801268D378D40A151A10E945D3923
:10062000F70122893389448955890E9406362B01B6
:100630003C019B01AC01C501B4010E941D39F801C8
:1006400018162CF4428A538A648A758AD3CF828A18
:10065000938AA48AB58ACECFD0911602F2E3DF9FA7
:1006600080011124095E1D4FC1E0CD0FC03109F496
:10067000C0E02090370582E3382EC21509F45BC034
:10068000CC2ED12C3C9CC0013D9C900D11249C0192
:10069000295E3D4F7901F801428853886488758846
:1006A000F90182889388A488B588A5019401C301C3
:1006B000B2010E94FB3687FF24C0F801628D738D62
:1006C000848D958D9B01AC010E940636F801268D24
:1006D000378D40A151A10E945D39A30192010E9472
:1006E00006362B013C019B01AC01C501B4010E94FF
:1006F0001D39181634F4F701428A538A648A758AC0
:10070000DC2F3C9CF0013D9CF00D1124E95EFD4F77
:1007100026893789408D518D6289738984899589AD
:100720000E94FB36811101C0DC2FCF5FC03109F47C
:10073000C0E08701A2CFD0931602DF91CF911F9125
:100740000F91FF90EF90DF90CF90BF90AF909F9070
:100750008F907F906F905F904F903F902F90089573
:100760002F923F924F925F926F927F928F929F92C1
:10077000AF92BF92CF92DF92EF92FF920F931F93AF
:10078000CF93DF93CDB7DEB7CA54D1090FB6F89433
:10079000DEBF0FBECDBF8AE3E0ECF1E0DF011D92CA
:1007A0008A95E9F78BE0E0E8F1E0A1ECB1E0019097
:1007B0000D928A95E1F780911107843211F00C9423
:1007C0003A1181E08093C1011092C20183E08A8FC7
:1007D000B1E0BBA3212C312C1CA61BA610E01B8E64
:1007E0001F8EEE24E394F12CEAE0AE2EB12CF1E65C
:1007F0008F2EF3E09F2E8A8DE82FF0E0EF5EF84F0A
:10080000D080DD2009F437C29FEB9D0D9A3110F0A6
:100810000C9409118F5F8A8FBE016A5E7F4FCE01F3
:100820004A960E942B29882311F40C940B114E88B0
:100830005F88688C798CC301B2010E94403A0E94A3
:100840007E37062F70E080E090E00E94AF379B017A
:10085000AC01C301B2010E94053620E030E048EC53
:1008600052E40E945D390E94CA390E947E37CB0152
:10087000E7E4DE1629F0FDE4DF1609F4EAC035C12D
:10088000083209F4C6C020F5043168F4013108F0DB
:100890008AC0043009F452C008F464C00A3009F474
:1008A00045C00C9419110C3109F440C050F40631C4
:1008B00010F00C94191125E1201B2093C30126E0B0
:1008C000ADC00E3199F1063209F44CC00C941911E7
:1008D0000D3309F498C0A8F4053381F140F40B32CC
:1008E00009F47AC0013309F477C00C9419110C3360
:1008F00010F00C9419116AEC600F6093C70129E0A5
:100900008DC00C3538F40A3508F053C0003581F13C
:100910000C9419110C3551F00F3510F00C9419117D
:100920002EE5201B2093C20125E078C0009731F40A
:100930002F8D21110C940D1131E03F8F0093C001D8
:10094000202F2D7F2C3119F00C3509F064C0009751
:1009500021F00A9711F00C941911600F6093C001F7
:1009600020E061C04F8D41110C940D11A2E0AF8FBA
:100970000093C101063209F050C08431910559F04D
:100980008E31910541F08832910529F0823391052D
:1009900011F00C941911B5010E94AF3566576093A0
:1009A000C10121E040C06FEE600F6093C50122E0FD
:1009B00035C0892B31F466EA600F6093C40123E0EF
:1009C00032C06A30710511F00C9419110A3511F416
:1009D0000C94191124E027C0BF8DB1110C940D1196
:1009E000013331F41092C60128E0E3E0EF8F1BC021
:1009F0000A9711F00C941911F1E0F093C60128E068
:100A000033E03F8F10C0892B11F00C9419112AE0AC
:100A10000AC027E003C020E001C021E0892B19F0C3
:100A200087E10C944111C70102C0880F991F2A95D4
:100A3000E2F72BA53CA528233923232B19F085E1C8
:100A40000C944111ABA5BCA5A82BB92BBCA7ABA797
:100A5000D2CE892B29F7063018F4033058F016C08F
:100A6000083010F40C9419110A30F0F00E3159F0DE
:100A70000C941911002319F0013011F104C0B3E0F6
:100A8000B093C8011DC00093C8011AC0043021F002
:100A9000053031F080E101C080E28093CA0102C0DC
:100AA0001092CA018CE00DC0093031F08091C9016B
:100AB00080648093C90102C01092C9018DE001C019
:100AC0008BE0F70102C0EE0FFF1F8A95E2F72BA51E
:100AD0003CA52E233F23232B09F0B1CF2BA53CA50A
:100AE0002E2B3F2B3CA72BA786CE8D2DDD0C990BF3
:100AF000AA0BBB0BFC01E654F109E531F10510F03E
:100B00000C941911EB5AFF4F0C94E5354092CC012F
:100B10005092CD016092CE017092CF0180E087C0EB
:100B20004092D0015092D1016092D2017092D301D3
:100B3000116081E07CC04092D4015092D501609256
:100B4000D6017092D701126082E071C04092D80144
:100B50005092D9016092DA017092DB01146083E057
:100B600066C00093DC0184E062C0C301B2010E9450
:100B700077376093DD017093DE018093DF019093FE
:100B8000E00185E054C04092E1015092E2016092A0
:100B9000E3017092E40186E04AC04092E501509280
:100BA000E6016092E7017092E80187E040C0409260
:100BB000E9015092EA016092EB017092EC0188E049
:100BC00036C020E030E04FE753E4C301B2010E9499
:100BD0001D39181614F40C940F110093ED0189E0DF
:100BE00026C04092EE015092EF016092F0017092A7
:100BF000F1013B8D31603B8F8AE019C04092F201D8
:100C00005092F3016092F4017092F5014B8D4260B5
:100C10004B8F8BE00CC04092F6015092F70160922E
:100C2000F8017092F9018B8D84608B8F8CE06701E5
:100C3000082E02C0CC0CDD1C0A94E2F7960122219A
:100C40003321232B11F00C941111D40102C0B5955E
:100C5000A7958A95E2F7A0FF0BC020E030E0A9013C
:100C6000C301B2010E94FB3687FF02C00C9413112E
:100C70002C283D28C0CDBB8DBB2329F0EF8DE11181
:100C800002C0F2E0FF8F25FE0FC08091DD01909140
:100C9000DE01A091DF01B091E00181389649A849B9
:100CA000B10514F00C9415113BA1332329F020FC5D
:100CB00002C00C941F1118C08091C201813071F4E0
:100CC0004F8D4230E1F58091C1018035C1F188231B
:100CD000B1F120FC02C00C941F1131C08091810140
:100CE00081112DC020FE1BC08091C301813039F5D8
:100CF00023E333E34BEC51E46091CC017091CD01DF
:100D00008091CE019091CF010E945D396093CC011A
:100D10007093CD018093CE019093CF0110C080914C
:100D20008F0190919001A0919101B09192018093D7
:100D3000CC019093CD01A093CE01B093CF0130FCB4
:100D400010C080918B0190918C01A0918D01B09188
:100D50008E018093E9019093EA01A093EB01B09397
:100D6000EC018091C001843039F426FC03C08CE191
:100D70000C944111E89426F88091C501882369F00C
:100D8000813029F48FAF1DAE92E09BAF0BC01FAE38
:100D9000A2E0ADAFB1E0BBAF05C0E2E0EFAFF1E084
:100DA000FDAF1BAE8091C301813021F02F8D233028
:100DB000C9F52FC060ECC62E61E0D62EE12CF12CD7
:100DC0003B8DA32EB12CC5010E2C02C095958795A5
:100DD0000A94E2F780FF12C023E333E34BEC51E4C3
:100DE000D6019E966D917D918D919C91D1970E9497
:100DF0005D39F60166A777A780AB91ABFFEFEF1ADD
:100E0000FF0A24E0C20ED11C33E0E316F104D9F648
:100E1000CDCF8091C601813029F44B8D443011F043
:100E20000C9417118CE0E4EAF1E0DE0111960190D8
:100E30000D928A95E1F78BA59CA591FD08C00091C4
:100E4000C0010A30C9F00C3509F4B3C01EC180914D
:100E5000C701873018F08DE10C9441119091860103
:100E6000891769F3BE016F5F7F4F0E94692688234F
:100E700011F40C942D11E3CF9B8D911103C08AE1E5
:100E80000C944111C10180759927892B09F46FCF0A
:100E90006091E1017091E2018091E3019091E401A0
:100EA0000E94403A0E947E376730A8F68091DC01AC
:100EB000843141F0823011F00C94191127FE02C0E8
:100EC0000C941911AFEA2A22662319F0615069A720
:100ED00003C0B091C701B9A760ED71E089A50E9478
:100EE0006926882311F40C942D110091DC014090A7
:100EF000BC015090BD016090BE017090BF0140ECFC
:100F0000E42E41E0F42E50E8A52E51E0B52EC12C80
:100F1000D12CEB8D8E2E912CC4010C2C02C09595FA
:100F200087950A94E2F780FF35C0043151F5D50169
:100F3000D0962D913D914D915C91D39758966D919E
:100F40007D918D919C915B970E940536F70126A5B6
:100F500037A540A951A90E940536D70150966D9337
:100F60007D938D939C935397B2E0CB1213C0A30152
:100F700092010E940536F701608B718B828B938BF7
:100F800009C0F70186A597A5A0A9B1A9808B918B6F
:100F9000A28BB38BFFEFCF1ADF0A24E0E20EF11C25
:100FA00034E0A30EB11C43E0C416D10409F0B4CF61
:100FB0003FC18B8D882309F462CF4090BC015090D3
:100FC000BD016090BE017090BF0120E8822E21E03B
:100FD000922EDE0111967D0130ECC32E31E0D32E2E
:100FE000A12CB12CE82FF0E0F8A7EFA38FA198A5D2
:100FF0000A2C02C0959587950A94E2F780FF29C0D4
:10100000D7012D913D914D915C91F401608D718DD1
:10101000828D938D0E940536D6019E962D913D912D
:101020004D915C91D1970E940536F60166A777A78E
:1010300080AB91ABF2E0AF1216C0A30192010E9407
:101040000536D6019E966D937D938D939C93D19793
:101050000AC0F40180A991A9A2A9B3A9F60186A7A3
:1010600097A7A0ABB1ABFFEFAF1ABF0A24E0820E87
:10107000911C34E0E30EF11C44E0C40ED11C83E06B
:10108000A816B10409F0B2CFD2C09F8D933069F495
:101090000E3109F494C0053309F4C3C00C3109F0D2
:1010A000C6C060ED71E086E08DC0AB8DAA2381F3F0
:1010B000B091C401BFA34090BC015090BD016090AD
:1010C000BE017090BF0180E8A82E81E0B82E90ECA0
:1010D000E92E91E0F92EFE0131964F01C12CD12C61
:1010E0002A2F30E03AA729A789A59AA50C2C02C07F
:1010F000959587950A94E2F780FD0BC0F501808DE8
:10110000918DA28DB38DF70186A797A7A0ABB1AB48
:1011100044C0053309F441C0FFA1F1112BC0D50132
:10112000D0962D913D914D915C91D397F4016081C2
:101130007181828193810E940636D7019E962D91FE
:101140003D914D915C91D1970E940636F70166A7BB
:1011500077A780AB91ABF2E0CF121FC0A301920141
:101160000E940636D7019E966D937D938D939C9336
:10117000D19713C0F501208D318D428D538DD7014C
:101180009E966D917D918D919C91D1970E9406368E
:10119000F70166A777A780AB91ABFFEFCF1ADF0A05
:1011A00024E0A20EB11C34E0E30EF11C44E0840EF6
:1011B000911C83E0C816D10409F096CF69CF60ED89
:1011C00071E087E00E946926882311F40C942D11A8
:1011D0009B8D911103C019A61F8E2AC0A0E8B1E013
:1011E000E0ECF1E080E090E04B8D242F30E0A901AD
:1011F000082E02C0559547950A94E2F740FD0AC0B3
:1012000058964D915D916D917C915B97408B518B80
:10121000628B738B0196149634968330910539F75F
:1012200006C08091C101823010F00C941B1119A6E8
:101230008091C1018FA3803529F49B8D91110C946D
:101240001D117AC2AF8DA23009F076C2BFA1B111D3
:1012500004C0EB8DE11170C22AC020E030E0A9018A
:101260006091CC017091CD018091CE019091CF0120
:101270000E94FB36882309F4E2C7FFA1FC3809F479
:1012800045C240F4F230A9F0F330B1F0F13009F08A
:1012900053C20AC02FA12E3809F438C208F433C251
:1012A0002F3809F430C248C23B8D311145C21F8E20
:1012B00043C24BA144604BA38B8D882309F4DFCD3F
:1012C000BBADAB2FB0E0B8ABAFA7FDADEF2FF0E0FB
:1012D000FCABEBAB81E090E07C010BAC02C0EE0C10
:1012E000FF1C0A94E2F70DAC02C0880F991F0A9404
:1012F000E2F7E82AF92A2B8D822F90E08E219F2198
:10130000892B09F49EC7FD01EE0FFF1FEE0FFF1F93
:10131000E054FE4FAA0FBB1FAA0FBB1FA856BE4F1B
:101320002D913D914D915C9166A577A580A991A9DC
:101330000E9405362B013C01EBA9FCA9EE0FFF1F13
:10134000EE0FFF1FE054FE4FABA9BCA9AA0FBB1FB5
:10135000AA0FBB1FA856BE4F2D913D914D915C9198
:1013600066A577A580A991A90E9405364B015C016D
:10137000610130E8C322DD2427FEF5C0E89427F898
:101380004CE050E06EEE71E088E991E00E94663A30
:10139000892B11F481E275C78091C3018130B1F4CA
:1013A00023E333E34BEC51E46091E5017091E601F6
:1013B0008091E7019091E8010E945D396093E50119
:1013C0007093E6018093E7019093E8018091E50135
:1013D0009091E601A091E701B091E8018FAB98AF41
:1013E000A9AFBAAFA3019201C301B2010E945D3956
:1013F00027966CAF7DAF8EAF9FAF2797A501940165
:10140000C501B4010E945D392B966CAF7DAF8EAFE4
:101410009FAF2B9720E030E040E850E46FA978AD13
:1014200089AD9AAD0E945D392FA938AD49AD5AAD4D
:101430000E945D3927962CAD3DAD4EAD5FAD27972F
:101440000E9405362B962CAD3DAD4EAD5FAD2B9772
:101450000E9405366B017C0120E030E0A9010E946A
:10146000FB3687FDF0C6C701B6010E94FC396B014F
:101470007C012B962CAD3DAD4EAD5FAD2B972796E5
:101480006CAD7DAD8EAD9FAD27970E9406360E9454
:10149000FC399B01AC01C701B60190580E94053789
:1014A0006B017C019FA1933021F4F7FAF094F7F8D7
:1014B000F09420E030E0A9016FA978AD89AD9AAD34
:1014C0000E94FB3687FF11C0F7FAF094F7F8F0940A
:1014D0008FA998ADA9ADBAADB0588093E5019093AE
:1014E000E601A093E701B093E8010FA518A9000F4A
:1014F000111F000F111F00531E4FA7019601C501B8
:10150000B4010E945D399B01AC01C301B2010E948C
:10151000053620E030E040E05FE30E945D39D8010D
:101520006D937D938D939C9313970BA91CA9000F2A
:10153000111F000F111F00531E4FA7019601C30179
:10154000B2010E945D39A50194010E94063620E097
:1015500030E040E05FE30E945D39F8016083718311
:1015600082839383E9C0212F30E038AF2FABE22292
:10157000F322EF2809F469C631EF23228091C301D9
:10158000813009F47BC0EFA5F8A9EE0FFF1FEE0F25
:10159000FF1FE053FE4FC080D180E280F380A7019F
:1015A0009601C301B2010E9405362B013C01EBA953
:1015B000FCA9EE0FFF1FEE0FFF1FE053FE4F8081CF
:1015C0009181A281B3818FA798ABA9ABBAAB9C01E3
:1015D000AD01C501B4010E9405364B015C01A301B8
:1015E0009201C301B2010E945D392B013C01A501AA
:1015F0009401C501B4010E945D399B01AC01C30196
:10160000B2010E9406360E94FC394B015C01A70121
:101610009601C701B6010E945D396B017C012FA5BF
:1016200038A949A95AA9CA01B9010E945D399B018B
:10163000AC01C701B6010E9406360E94FC396B015D
:101640007C016093E5017093E6018093E70190933C
:10165000E8019B01AC01C501B4010E9405364B01B4
:101660005C01E894B7F82AE037ED43EA5BE3C50193
:10167000B4010E941D3918164CF15EC000EC11E057
:101680008FA998AD0C2C02C0959587950A94E2F726
:1016900080FF12C023E333E34BEC51E4D8015096B2
:1016A0006D917D918D919C9153970E945D39F801C8
:1016B000608B718B828B938BFFEFCF1ADF0A0C5FED
:1016C0001F4F23E0C216D104D9F65DCF20E030E0F1
:1016D00040E05FE3C501B4010E941D3918160CF407
:1016E00059CE2FE632E143E85AE3C701B6010E9422
:1016F0005D399B01AC01C501B4010E941D3918166A
:101700000CF448CE19C03BA130613BA38FA18E5889
:10171000823018F44BA148604BA38B8D882309F4C9
:10172000AECB4CE050E06EEE71E088E991E00E94B3
:10173000663A892B09F42ECE2BA121709BA190FF34
:1017400003C0C1018E7D03C0C1018E7D9C7FAF8D22
:10175000A111937E892B09F07AC58E01035F1F4F7B
:1017600089E0F80111928A95E9F7222309F44BC028
:101770008BA59CA5867B892B09F06BC58091C00148
:10178000853311F0811165C580918B0190918C0199
:10179000A0918D01B0918E01898B9A8BAB8BBC8B04
:1017A0009091890180918801892B4091CC015091C1
:1017B000CD016091CE017091CF014D875E876F871B
:1017C000788B84608D8B8091700185FF06C08EEED2
:1017D00091E00E94003281113EC5B8018EEE91E089
:1017E0000E941B3380911A01811139C50E94420267
:1017F000892B09F434C580E280931A010E94D61720
:101800000E949A222CC580917001F090890181FF7D
:1018100026C08FA18150833018F0FBA1F064FBA398
:101820002B8D222339F03F8D323021F44BA14068BB
:101830004BA315C080E1F81212C080918001815045
:101840009BA19074833030F4992349F09BA190625E
:101850009BA305C0911103C0ABA1A062ABA3809173
:10186000DD019091DE01A091DF01B091E001809354
:10187000940190939501A0939601B0939701809164
:10188000C20180938101882311F088E08D8B8091C3
:10189000CC019091CD01A091CE01B091CF01809368
:1018A0008F0190939001A0939101B09392018D8745
:1018B0009E87AF87B88B8090E9019090EA01A09055
:1018C000EB01B090EC01A501940160918B01709146
:1018D0008C0180918D0190918E010E94FB36BBA1FD
:1018E000B074EB2E811103C0EBA1E5FF20C0FF20F7
:1018F00071F0FBA1F7FD0BC0EE2021F040E050E0BD
:10190000BA0102C0B501A4018F2D0E94403280911E
:10191000E9019091EA01A091EB01B091EC01809373
:101920008B0190938C01A0938D01B0938E01E110F7
:101930000CC080918B0190918C01A0918D01B09190
:101940008E01898B9A8BAB8BBC8B8091ED01809340
:1019500093018091CA0190918901981751F04989AA
:101960005A896B897C890E9440328091CA01809398
:1019700089019D8980918901892B8D8BF090C90106
:10198000809188018F1569F080911A01823029F0C9
:101990000E94DC168F2D0E9417178091C901809339
:1019A00088019D8980918801892B8D8B8091C00150
:1019B000843099F4C090E101D090E201E090E3011D
:1019C000F090E40180911A01823039F00E94DC1617
:1019D00040E0C701B6010E94DA238091C5018093DF
:1019E00084018091C301809382012F8D233071F592
:1019F0008091C60180938501811108C01092F60183
:101A00001092F7011092F8011092F901C090F601BE
:101A1000D090F701E090F801F090F901A70196014C
:101A20006091BC017091BD018091BE019091BF0198
:101A30000E94FB36882351F0C092BC01D092BD01B8
:101A4000E092BE01F092BF010E943B328091C7013B
:101A500090918601981769F0809386018CE0FE01D1
:101A60003196A4EAB1E001900D928A95E1F70E94C7
:101A70003B328091C401809383018091C001863202
:101A8000F1F138F48C3109F18E31F9F08A3069F0D6
:101A90004FC08C35D1F1863609F441C0883209F047
:101AA00047C068E971E087E02DC060ED71E089A56D
:101AB0000E9455268091860139A5381339C08CE0E3
:101AC000E0EDF1E0A4EAB1E025C08D8981608D8B65
:101AD0004F8D442329F0B8018EEE91E00E941B3314
:101AE000B80180ED91E00E941B338CE0E0EDF1E065
:101AF000A8E9B1E001900D928A95E1F719C068E973
:101B000071E086E00E94552613C08CE0EEEEF1E015
:101B1000A0EBB1E001900D928A95E1F707C08CE04F
:101B2000E0EBF1E0DF011D928A95E9F70E943B327C
:101B30008091C10180938001803509F41CC3BF8D61
:101B4000B23009F018C3813021F4BE01635F7F4FCA
:101B500006C0811109C08D8981608D8BB8018EEE20
:101B600091E00E941B33FEC28250823008F093C283
:101B70008091E5019091E601A091E701B091E80123
:101B80008F8F98A3A9A3BAA3ABAD94E0A99F7001CE
:101B90001124F701E856FE4FF8A7EFA39701205351
:101BA0003E4F3AA729A7D9014D905D906D907C904A
:101BB0002081318142815381C301B2010E940636E6
:101BC0006BA77CA78DA79EA7EDADB4E0EB9F80012E
:101BD0001124980128563E4F3CAF2BAFC8018053CB
:101BE0009E4F9EAF8DAFDC018D909D90AD90BC90CF
:101BF000F9012081318142815381C501B4010E94E4
:101C000006366FA778AB89AB9AAB77FA709477F802
:101C10007094D501C401B0588B8F9C8FAD8FBE8F4F
:101C2000F701E251FE4F2BA53CA54DA55EA56081B5
:101C30007181828193810E9405366B017C01F801DC
:101C4000E251FE4F2FA538A949A95AA96081718197
:101C5000828193810E9405364B015C01A7019601A8
:101C6000C301B2010E945D396BAB7CAB8DAB9EAB07
:101C7000A50194016B8D7C8D8D8D9E8D0E945D39AB
:101C80009B01AC016BA97CA98DA99EA90E94063677
:101C90006BAB7CAB8DAB9EABA5019401C301B201D4
:101CA0000E945D394B015C01A70196016B8D7C8D13
:101CB0008D8D9E8D0E945D399B01AC01C501B401E3
:101CC0000E9405362BA93CA94DA95EA90E94853624
:101CD0006B017C019BA192FF13C02DEB37E346E023
:101CE00055EBC701B6010E941D3987FD1DC02BEDC4
:101CF0003FE049EC50E4C701B6010E94053612C02E
:101D00002DEB37E346E055E3C701B6010E94FB36F1
:101D1000181654F02BED3FE049EC50E4C701B60132
:101D20000E9406366B017C018090640190906501F1
:101D3000A0906601B09067012F8D38A149A15AA1EA
:101D4000CA01B9010E940636A50194010E94053618
:101D5000A50194010E945D390E94FC394B015C0190
:101D600020E030E040E05FE3C701B6010E945D394A
:101D70002F8D38A149A15AA10E945D399F77A501F5
:101D800094010E9405370E94EA370E947E377CAB9F
:101D90006BABDB01AB2B09F4D8CE1D894B01A12C19
:101DA000B12C13FF12C0C501B4010E94AD379B01D5
:101DB000AC016D857E858F8598890E945D396D8720
:101DC0007E878F87988B177F1D8BC501B4010E947A
:101DD000AD374B015C019B01AC01C701B6010E940C
:101DE00005376BA37CA38DA39EA3EFADB4E0EB9F5F
:101DF000C00111248C0108561E4FFC01E251FE4F18
:101E0000D8012D913D914D915C91608171818281CC
:101E100093810E940536A50194010E9405372796FB
:101E20006CAF7DAF8EAF9FAF27972BA13CA14DA18B
:101E30005EA1CA01B9010E945D399B01AC0160E05D
:101E400070E080E090E40E9405366B017C012BEA93
:101E50003AEA4AE25EE36BA17CA18DA19EA10E94B9
:101E60005D394B015C0120E030E040E850E4C701FF
:101E7000B6010E9406369B01AC01C501B4010E9467
:101E80005D396FAB78AF89AF9AAF20E030E040E0CA
:101E90005FE3C701B6010E945D3923966CAF7DAF49
:101EA0008EAF9FAF23971F8E22242394312CEBA952
:101EB000FCA9E215F30509F448CEBF8DBC3008F04B
:101EC00044C02B8D3C8D4D8D5E8D23966CAD7DADCC
:101ED0008EAD9FAD23970E945D396B017C01A301FC
:101EE00092016FA978AD89AD9AAD0E945D39A701C5
:101EF00096010E9406367B016C01A3019201239694
:101F00006CAD7DAD8EAD9FAD23970E945D394B01C9
:101F10005C012B8D3C8D4D8D5E8D6FA978AD89ADAB
:101F20009AAD0E945D399B01AC01C501B4010E94CC
:101F300005362B013C01EF8DEF5FEF8F4701560116
:101F40008B8E9C8EAD8EBE8E65C0B10180E090E020
:101F50000E94AD372BA13CA14DA15EA10E945D392D
:101F60006B017C010E9400376B8F7C8F8D8F9E8F61
:101F7000C701B6010E94EE394B015C01A9A5BAA5C3
:101F8000CD90DD90ED90FC90F7FAF094F7F8F09496
:101F9000ADADBEAD8D919D910D90BC91A02D8F8F5B
:101FA00098A3A9A3BAA3A70196016B8D7C8D8D8DF3
:101FB0009E8D0E945D392B013C012F8D38A149A1D6
:101FC0005AA1C501B4010E945D399B01AC01C30156
:101FD000B2010E9406362B013C01A7019601C50102
:101FE000B4010E945D396B017C012F8D38A149A19C
:101FF0005AA16B8D7C8D8D8D9E8D0E945D399B01CC
:10200000AC01C701B6010E9405366B8F7C8F8D8FA6
:102010009E8F1F8EA30192016BA57CA58DA59EA509
:102020000E940636EFA1F8A56083718382839383B3
:102030002B8D3C8D4D8D5E8D6FA578A989A99AA9B0
:102040000E940636ABADBCAD6D937D938D939C9392
:10205000139727962CAD3DAD4EAD5FAD2797F80198
:1020600060817181828193810E940636D8016D93CF
:102070007D938D939C931397BE01635F7F4F88E997
:1020800091E00E941B3380911B0181116BC0BFEF57
:102090002B1A3B0A0CCF8D8984608D8B80911A019D
:1020A000823009F45FC00E94DC1680911B0181110F
:1020B00062C0FBA1F071FF2E10921F012BA123FB28
:1020C000882780F90E94631186B180729091000187
:1020D000891749F084E00E9435170E94C81580E0F6
:1020E0000E94631148C0B8018EEE91E00E941B333C
:1020F00081E08093190182E00E9445170E94C81573
:1021000080911B01811137C080911A018111F6CF96
:1021100080911901813081F4FF2051F08CE0E1E0E1
:10212000F1E0ADE0B1E001900D928A95E1F707C0D2
:1021300085E00E94351703C081E080931F01109253
:10214000190180E00E9463110E94C8150E941F209F
:102150000E9452020E9475110E94793580911F01E0
:1021600081118CC08CE0EEEEF1E0A8E9B1E00190C5
:102170000D928A95E1F78091C801809387018823A9
:1021800009F47FC00E94DC168091870190911A01AA
:10219000833041F49230D1F188E00E9445170E94CB
:1021A000C81534C081E080938001109284011092A0
:1021B0008301109281011092860110928901109280
:1021C000880184E68093210180932201809323017A
:1021D000923091F064EA71E080E00E9469268823E1
:1021E000E1F10E943B3240E050E0BA0180E00E9401
:1021F000B22280E00E94171783EA92E00E94CB236C
:102200008AE392E00E94CB230E9426291092870144
:102210002FC081E036C082E034C088E132C086E25F
:1022200030C089E12EC084E02CC08BE12AC085E259
:1022300028C084E126C08EE124C08FE122C086E15F
:1022400020C080E21EC082E21CC083E21AC084E289
:1022500018C080E116C08FE014C087E012C08CE087
:10226000EEEEF1E0A8E9B1E001900D928A95E1F778
:1022700080E007C01A8E1BA20C94EA030E949324EC
:102280007ACFC65BDF4F0FB6F894DEBF0FBECDBF6F
:10229000DF91CF911F910F91FF90EF90DF90CF9042
:1022A000BF90AF909F908F907F906F905F904F9076
:1022B0003F902F9008950E944202892B19F082E0EE
:1022C0000C9445170895109200019091700197FDAC
:1022D00003C090E290930001882331F090910001B7
:1022E00080E28927809300010895E1E0F1E0AAEF00
:1022F000B1E041915191619171914D935D936D93D5
:102300007D9381E0ED30F807A1F708953F924F9259
:102310005F926F927F928F929F92AF92BF92CF9275
:10232000DF92EF92FF920F931F93CF93DF93CDB77E
:10233000DEB7A4970FB6F894DEBF0FBECDBF1091E5
:102340001D06112391F181E080931A0189EA92E040
:102350000E94CB23812F0E94A5230E94C82785EFCE
:1023600091E0019739F0EFE9FFE03197F1F700C014
:102370000000F7CF1150123030F08FB7F894109260
:102380001D068FBF12C083EA92E00E94CB2381E931
:1023900092E00E94CB230E94262980E10E943B17F5
:1023A00080911E0684FFFCCFE8CF10911E061123FA
:1023B00009F4BBC214FF04C081E080931B01D0C3A9
:1023C00010FFBFC18CE0E1E0F1E0DE015996019021
:1023D0000D928A95E1F7BE01675E7F4FCE010D96A3
:1023E0000E944E178CE30E94932780911A01883037
:1023F000E1F058F4813099F1A8F0823099F18430FD
:1024000009F043C084EF92E03EC0803229F118F415
:10241000803171F03AC0803441F18038B1F58CEDF3
:1024200092E031C087E093E02EC083E093E02BC0C0
:1024300080911C0187FD10C08DEF92E00E94CB239C
:1024400080911C0180FF06C080E31AC082FF17C084
:1024500085FFFACF81E314C089EF92E014C08EEEBD
:1024600092E011C088EE92E00EC082EE92E00E94EF
:10247000CB2380911C0183FFE9CF83E301C082E37A
:102480000E94932702C00E94CB2380915F01F82F06
:10249000F170BF2E80FF07C080912601882319F0BC
:1024A00085ED92E053C04090BC015090BD0160901A
:1024B000BE017090BF0154EA852E51E0952E9E0119
:1024C0002F5F3F4F7901CE010D966C0100E0F401C2
:1024D00061917191819191914F0120853185428562
:1024E00053850E940636F70160837183828393834C
:1024F000023061F4A30192010E940636F701608365
:10250000718382839383BB2019F0CACFB11011C0AD
:10251000F7012081318142815381F601608171810F
:10252000828193810E940536F601608371838283E4
:1025300093830F5FF4E0EF0EF11C24E0C20ED11C78
:10254000033029F6B110ACCF8EEC92E00E94CB2381
:10255000CE010D960E94AF2780915F0181FF1FC0C1
:1025600089EC92E00E94CB239091370580911C0664
:10257000981710F0815F01C08150891B0E94A5232C
:102580008CE20E9493278091A0069091A106981753
:1025900010F0805801C08150891B0E94A52384EC53
:1025A00092E00E94CB2380911A018C7749F06091D0
:1025B0004F0570915005809151059091520503C0CF
:1025C00060E070E0CB010E9487238CE20E94932799
:1025D00060912701709128018091290190912A0131
:1025E00040E00E94EA220E945C24F82E0E948A1792
:1025F000082F86B1982F907280910001E92EE8266D
:102600008F2D802B8E2959F18FEB92E00E94CB23E6
:10261000EE2019F080E50E949327FF2079F0F0FE6C
:1026200003C088E50E949327F1FE03C089E50E945C
:102630009327F2FE03C08AE50E949327002379F0D6
:1026400000FF03C082E50E94932701FF03C088E4D6
:102650000E94932702FF03C083E50E949327809185
:102660002601882321F081508093260118C0809193
:102670001A018C7711F08DE101C089E08093260169
:1026800080912501811103C081E08093250189EBB0
:1026900092E00E94CB23CE0101960E94AF270091C9
:1026A0002501002321F001500093250142C08091B3
:1026B0001A018C7711F083E101C089E08093250134
:1026C00084EB92E00E94CB23809121010E94A523FC
:1026D0008CE20E949327809122010E94A5238CE224
:1026E0000E949327809123010E94A5238091B0002E
:1026F00087FF05C02D9B02C002E001C001E0439BA3
:1027000003C040E4F42E03C0002399F0F12C80EBC9
:1027100092E00E94CB23002339F0013011F483E5CD
:1027200001C083E40E949327FF2019F086E40E94F1
:1027300093278EE30E9493270E94C82781E00E947E
:102740003B17812F887E09F467C080911A01982F6A
:10275000937009F050C08872A1F080911C01807CB8
:1027600081F40E94941F82E080931E0180911A01DF
:10277000803239F417FDF2C180911C01806880938A
:102780001C0180911A01811103C091E090931C01FA
:1027900016FF07C085FD05C090911C0190649093C1
:1027A0001C0113FF05C0807E19F480E180931A019B
:1027B00015FF21C083EA92E00E94CB238FE492E0D0
:1027C0000E94CB230E94262980911C0187FD0EC008
:1027D00090911A01903439F483FFBCC1837E8260EA
:1027E00080931C01B7C1903809F0B4C180911C01DD
:1027F000806280931C0117FF0CC080911A01813008
:1028000029F480911C01856080931C0180E88093ED
:102810001A0188EE0E943B1711FF44C0812F887671
:10282000F1F580911A01803471F480911C0185FDCD
:102830000AC084FF03C010921A0105C082FF03C0C2
:10284000886080931C0180911A01882381F084FFA5
:1028500026C090911C0190FF22C0803141F48091EC
:102860002401882321F088608093240118C01092ED
:102870001E010E944202892B71F080911C0186FD8D
:102880000AC010921C0188E080931A010E94D6179A
:102890000E949A2204C010921C0110921A0182E038
:1028A0000E943B1712FF41C080911A01807D9091D8
:1028B0001C018823D9F080911D01811117C097FD5B
:1028C00015C00E94941F80911C06809316020E94DE
:1028D000630280911E0181FF05C090911C019160EF
:1028E00090931C01897F80931E011CC097FF0AC032
:1028F00010921E010E9452020E941F200E949324E7
:102900000E94751180911C0185FF08C08F7781603E
:1029100080931C0180E480931A0104C010921C0172
:1029200010921A0184E00E943B1790916805992348
:1029300009F4ABC08FB7F894109268058FBF40912F
:10294000210190FD02C0842F01C084E691FD865FC5
:1029500092FD8A5093FD8F5F94FD8150893C08F071
:1029600088EC8A3008F48AE03091220195FD02C09B
:10297000232F01C024E696FD22E397FD29E14813A9
:1029800003C0231709F481C0809321012093220101
:102990001092250110911C063090370589E9D82E38
:1029A00096E7E92E26E9F22E0EE732E3432E1315C1
:1029B00009F457C0812E912C489CC001499C900D70
:1029C0001124FC01E95EFD4F5F01CF010E94CF01A0
:1029D000562E672E782EC92E2D2D3E2D4F2D502F81
:1029E0000E941D3918164CF42D2D3E2D4F2D502FC1
:1029F0006D2D7E2D8F2D902F08C0252D362D472D26
:102A00005C2D652D762D872D9C2D0E945D39F5015D
:102A1000668B778B808F918F489CC001499C900D6D
:102A200011249C01295E3D4F7901F90182A093A0F8
:102A3000A4A0B5A0A501940166897789808D918DA8
:102A40000E941D3918162CF4F701868A978AA08EE9
:102A5000B18E1F5F103109F410E0D52C73010C2DDD
:102A6000A6CF8D2D9E2DAF2DB02F80931202909367
:102A70001302A0931402B09315020E94941F809138
:102A80001C06809316020E946302109169051123AF
:102A900009F459C08FB7F894109269058FBF9091CF
:102AA000230110FD02C0892F01C084E611FD865F5D
:102AB00012FD8A5013FD8F5F14FD8150893C08F090
:102AC00088EC8A3008F48AE09817D1F080932301CB
:102AD00080911A0181110DC040918B0150918C01A0
:102AE00060918D0170918E01809189010E94B222C6
:102AF00005C080911E01886080931E0110922501FF
:102B000080911A0115FF0DC0803159F49091240174
:102B1000911102C092E003C090FF03C094609093B3
:102B20002401107C81F0882311F0887361F01091EA
:102B3000880116FF02C01F7B01C01064812F0E9414
:102B400017171093880180911A018C7F49F00E9419
:102B5000D61706C080E480931A0148CE80E218CED2
:102B6000A4960FB6F894DEBF0FBECDBFDF91CF9114
:102B70001F910F91FF90EF90DF90CF90BF90AF909B
:102B80009F908F907F906F905F904F903F900895AF
:102B9000CF92DF92EF92FF921F93CF93DF930E9429
:102BA000861180911C01882309F4FEC00E94420214
:102BB000009771F4C091890180918801C82BC09061
:102BC0008B01D0908C01E0908D01F0908E010EC0B1
:102BD000FC01C189C073439B02C020E401C020E016
:102BE000C22BFC01C6A4D7A4E0A8F1A88091700173
:102BF00081FF03C080E20E942317DC2FD07311E015
:102C0000C07C80911C01882309F4CEC090911B01E7
:102C10009111CAC080FFC5C090911A01292F207C54
:102C200009F474C082FD12C01092240140E050E00B
:102C3000BA0180E00E94B22280E00E9417178091C2
:102C40001C018D7F846080931C01ABC09038E1F43F
:102C500083EA92E00E94CB238CE092E00E94CB2397
:102C60000E94262940E050E0BA0180E00E94B22292
:102C700080E00E9417170E94E91F80911B018111BB
:102C800093C00E948611F9CF903419F48F7D809300
:102C90001C0180911C0183FF84C0909189019923BC
:102CA000C1F081FD16C08091700181FF06C0809146
:102CB0001E01886080931E010CC0B701A6018D2FF4
:102CC0000E94B22241E060E070E080E890E40E945F
:102CD000DA2380918801882371F080911C0181FDA5
:102CE0000AC08C2F0E94171741E060E070E080E876
:102CF0009FE30E94DA2380911C0181FD52C0806114
:102D000080931C0182E00E9445174BC080912401F2
:102D10008823C9F181FF0DC0809189018823B1F01A
:102D200040E050E0BA0180E00E94B22210932401FA
:102D300038C08C70B1F18091890181110AC08091F5
:102D4000240183FF03C082E00E94451710922401F2
:102D500028C083EA92E00E94CB2385E192E00E94A2
:102D6000CB230E9426298091700181FF06C08091AB
:102D70001E01886080931E01E2CFB701A6018D2F4E
:102D80000E94B222DCCF80911E0183FF0AC0B701EE
:102D9000A6018D2F0E94B22280911E01877F809311
:102DA0001E010E9486112DCFDF91CF911F91FF90C0
:102DB000EF90DF90CF9008950E945B110E94C8159C
:102DC00080911B01811108C00E944202892BB1F73A
:102DD00080911A01883091F30895F894F999FECF03
:102DE00092BD81BD81E08FBB80B58627482F082E1C
:102DF000000C550B262F30E024233523232B39F0EC
:102E00006F3F19F060BD84E006C084E104C08823F0
:102E100021F060BD84E28FBBF99A78940895F99906
:102E2000FECF92BD81BD81E08FBB80B508959091AA
:102E30001B01911107C086FF02C0439A01C043984D
:102E40001092250108959FB7F89420916905822B6F
:102E5000809369059FBF08959FB7F89420916805F6
:102E6000822B809368059FBF08959FB7F894809345
:102E70001D069FBF08952FB7F89490911E06809568
:102E8000892380931E062FBF08959FB7F894209141
:102E90001E06822B80931E069FBF08958F929F92DD
:102EA000AF92BF92CF92DF92EF92FF920F931F9358
:102EB000CF93DF93EB012BE2E22E21E0F22E8C0187
:102EC0006B018CE0C80ED11C69917991899199911F
:102ED000F70181909190A190B1907F010E94AF374E
:102EE000A50194010E940537F801619371938193C4
:102EF00091938F01CC15DD0539F7DF91CF911F91AB
:102F00000F91FF90EF90DF90CF90BF90AF909F9088
:102F10008F90089596B19095892F877059F091FF01
:102F200002C082E001C080E090FD816092FF03C09A
:102F30008460089580E008951F920F920FB60F925B
:102F400011242F933F934F935F936F937F938F93AE
:102F50009F93AF93BF93CF93EF93FF930E948A17F2
:102F6000C82F882389F080FD0E940924C2FF05C074
:102F700080911E06826080931E06C1FF05C080916D
:102F80001E06886080931E06FF91EF91CF91BF913E
:102F9000AF919F918F917F916F915F914F913F91F1
:102FA0002F910F900FBE0F901F9018952F923F9268
:102FB0004F925F926F927F928F929F92AF92BF9249
:102FC000CF92DF92EF92FF920F931F93CF93DF93F5
:102FD000CDB7DEB7EC970FB6F894DEBF0FBECDBF0E
:102FE00080911E0180FD87C7909190058091910589
:102FF000981709F480C78091190690911A06892BB9
:1030000009F015C310911E0112FF09C08091370508
:1030100022E3289FC0011124895E9D4F02C00E94B7
:10302000420290931A068093190620901906309058
:103030001A062114310409F45EC700913905802F66
:10304000817000FF03C010923905EAC090913805E5
:103050009F5F953009F0892F80933805E82EF12C79
:1030600032E13E9DF0013F9DF00D1124E154FA4FF5
:10307000F093BE05E093BD05D10150969C91509709
:10308000908BE2E18E9FC001112420E030E04D9151
:103090005D916D917D91F901E80FF91FE154FA4FAF
:1030A000689412F8440F551F661F771F1694D1F7C6
:1030B00040835183628373832C5F3F4F2C303105F3
:1030C00031F722E12E9DF0012F9DF00D11249F017B
:1030D00021543A4FF10184859585A685B78543E053
:1030E000880F991FAA1FBB1F4A95D1F7F901848742
:1030F0009587A687B787D1011C966D917D918D919B
:103100009C911F970E94AD3760933E0570933F05D9
:103110008093400590934105F101268D378D40A1A4
:1031200051A10E9405379B01AC0160934205709349
:103130004305809344059093450560E070E080EA84
:103140009FE30E940537609346057093470580937F
:1031500048059093490510923A0510923B0510924C
:103160003C0510923D0511FD02C003FF1FC0609198
:103170005705709158058091590590915A056093B3
:103180004F057093500580935105909352059B0114
:10319000AC010E945D39D10152966D937D938D9360
:1031A0009C935597077F009339050FC0F101628901
:1031B0007389848995890E94FC3960934F057093C7
:1031C00050058093510590935205F2E1FE9DC00198
:1031D000FF9D900D11249C0121543A4F7901D90192
:1031E00051961C928091700181FF1AC0F101818972
:1031F00085FF16C022A533A544A555A560E070E063
:1032000080E89FE30E94053760936305709364052F
:103210008093650590936605E1E0D7015196EC93A4
:1032200010924B0510924C0510924D0510924E05D0
:10323000D1015A962D913D914D915C915D972983D5
:103240003A834B835C8360E070E080E09FE30E9400
:1032500005374B015C01F101468C578C60A071A0D1
:1032600011FF4BC0F2E0F0934A05D1015296CD9088
:10327000DD90ED90FC905597A70196010E945D3975
:103280009B01AC01C301B2010E9405364B015C01F8
:1032900020E030E0A9010E94FB3687FF1DC0298194
:1032A0003A814B815C81CA01B9010E940636A301B3
:1032B00092010E945D399B01AC01C701B6010E94D9
:1032C00005360E94FC39609357057093580580932A
:1032D000590590935A05A8C180924B0590924C05D0
:1032E000A0924D05B0924E051092570510925805C8
:1032F0001092590510925A0597C110924A054092B2
:103300005B0550925C0560925D0570925E0512FF50
:103310000CC0109257051092580510925905109242
:103320005A05C12CD12C760124C0E0911C06EF5F18
:10333000E03109F4E0E0809137058E1759F0B2E3EF
:10334000BE9FF0011124E95EFD4FC288D388E48856
:10335000F58803C0C12CD12C7601C701B6010E94AB
:10336000FC396093570570935805809359059093E5
:103370005A05C1010E94CF01698B7A8B8B8B9C8B84
:103380009B01AC010E945D3969877A878B879C8796
:10339000D10152962D913D914D915C9155972D8380
:1033A0003E834F8358870E94FB3687FF6CC0298578
:1033B0003A854B855C856D817E818F8198850E94E1
:1033C0000536A50194010E945D399B01AC01C30142
:1033D000B2010E94053660935B0570935C05809393
:1033E0005D0590935E0520E030E0A9010E94FB3668
:1033F00018163CF1B2E0B0934A0529813A814B811D
:103400005C81CA01B9010E940636A30192010E94A3
:103410005D399B01AC016D817E818F8198850E9411
:1034200005360E94FC3960935705709358058093C8
:10343000590590935A058091390588608093390524
:10344000F3C0A701960169857A858B859C850E94CA
:103450000536A50194010E945D3960935F05709364
:103460006005809361059093620529893A894B89AB
:103470005C89209353053093540540935505509330
:10348000560533E0B6C0A70196016D817E818F811C
:1034900098850E940536A50194010E945D39A3011B
:1034A00092010E94063620E030E040E05FE30E9497
:1034B0005D396D877E878F87988B20E030E0A9018A
:1034C0000E941D3918160CF097C02D853E854F853A
:1034D0005889C301B2010E941D3918160CF088C02A
:1034E000A701960169857A858B859C850E940536A2
:1034F000A50194010E945D399B01AC0160935F05B9
:103500007093600580936105909362056D857E855B
:103510008F8598890E941D391816CCF589899A895A
:10352000AB89BC898093530590935405A0935505AE
:10353000B09356052D813E814F81588569857A85E6
:103540008B859C850E94FB36811104C091E090938D
:103550004A056AC02D813E814F81588569857A85EB
:103560008B859C850E940536A50194010E945D39DA
:103570009B01AC01C301B2010E94053660935B055B
:1035800070935C0580935D0590935E054DC02D851D
:103590003E854F85588920935B0530935C054093A9
:1035A0005D0550935E0520935F0530936005409361
:1035B00061055093620529813A814B815C81CA0182
:1035C000B9010E9406362D853E854F8558890E9497
:1035D0005D39A70196010E9406360E94FC3960936E
:1035E00053057093540580935505909356051CC060
:1035F00032E030934A0518C010925B0510925C05CA
:1036000010925D0510925E058091570590915805C6
:10361000A0915905B0915A05809353059093540594
:10362000A0935505B0935605186010931E01809124
:10363000BC05482F50E05A8B498B87E0849FF001EE
:10364000859FF00D1124EE56FA4F80913805848342
:10365000A0911906B0911A06BCAFABAF5E96BC91B3
:10366000BAA3EBADFCADF78DFBA3ABADBCAD9096B3
:10367000BC91BCA3EBADFCADF1A1FDA3209146052F
:103680003091470540914805509149056AA17BA1B9
:103690008B2F9F2F0E9405366EA77FA788AB99AB13
:1036A00020E030E0A9010E94FB3687FF04C01EA67F
:1036B0001FA618AA19AA209153052E8B30915405E4
:1036C0003F8B40915505488F50915605598F8091F9
:1036D0005B058A8F90915C059B8FA0915D05AC8FF7
:1036E000B0915E05BD8FE0914F05E983F0915005E3
:1036F000FD83209151052987309152053D874091E6
:103700005F054EA3509160055FA38091610588A776
:103710009091620599A7A0914A05AD8BB0914B0598
:10372000BAA7E0914C05EBA7F0914D05FCA72091BD
:103730004E052DA7309157053BAB409158054CAB3A
:10374000509159055DAB80915A058EAB2EA13FA1DA
:1037500048A5592F6A8D7B8D8C8D9D8D0E94FB36DF
:10376000811103C092E09AAB02C0A1E0AAAB3AA0DB
:103770002BA01CA10DA18EE3C82E83ECD82E8EE2C7
:10378000E82E89E3F82E412C512C3201CE8EDF8EAB
:10379000E8A2F9A23D89313009F4F2C0ABADBCAD6D
:1037A000313008F47BC0333009F020C15A962D9196
:1037B0003D914D915C915D97C701B6010E945D39C5
:1037C0004B015C012E893F89488D598D69817D812E
:1037D00089859D850E9405369B01AC01C501B40118
:1037E0000E941D3987FD31C02A8D3B8D4C8D5D8D2A
:1037F0006AA17BA18CA19DA10E9405369B01AC0111
:103800000E9406366B017C0129813D8149855D85D9
:103810006E897F89888D998D0E9406369B01AC0147
:10382000C701B6010E9405376B017C01BE89B983CF
:10383000EF89ED83F88DF987298D2D873A8C2B8CB4
:103840001C8D0D8D31E03D8B51C120E030E040E01A
:103850005FE3C501B4010E945D399B01AC01698140
:103860007D8189859D850E940536A70196010E946C
:103870005D399B01AC01632D722D812F902F0E9429
:103880000536362E272E182F092FA50194016981A0
:103890007D8189859D850E9405366DC05A962D9142
:1038A0003D914D915C915D97C701B6010E945D39D4
:1038B0004B015C0120E030E040E05FE30E945D39B5
:1038C00029813D8149855D850E940636A7019601C3
:1038D0000E945D399B01AC01632D722D812F902FC9
:1038E0000E940536362E272E182F092F262F372F08
:1038F000482F592F6A8D7B8D8C8D9D8D0E941D398F
:1039000018168CF52A8D3B8D4C8D5D8D6AA17BA19F
:103910008CA19DA10E9405369B01AC010E94063638
:103920006B017C0129813D8149855D856E897F8997
:10393000888D998D0E9406369B01AC01C701B601A6
:103940000E9405376B017C01BAA9BD8BEE89E98322
:10395000FF89FD83288D2987398D3D873A8C2B8CF3
:103960001C8D0D8DC3C0A501940169817D81898560
:103970009D850E94063669837D8389879D87B6C0B1
:103980002E893F89488D598DC701B6010E945D3946
:103990009B01AC01632D722D812F902F0E94053663
:1039A0005B014C019B01AC016EA17FA188A599A58B
:1039B0000E941D3918160CF095C02EA13FA148A5F4
:1039C00059A5632D722D812F902F0E9405362E89C7
:1039D0003F89488D598D0E9405376B017C013EA0BF
:1039E0002FA018A509A542E04D8B80C05A962D91B5
:1039F0003D914D915C915D97C701B6010E945D3983
:103A00004B015C0129813D8149855D850E94FB3622
:103A100087FF39C020E030E040E05FE3C501B4013A
:103A20000E945D399B01AC0169817D8189859D85FD
:103A30000E940536A70196010E945D399B01AC01E9
:103A4000632D722D812F902F0E9405366FAB78AFBA
:103A500089AF9AAF2AA53BA54CA55DA50E941D394B
:103A600018168CF4A501940169817D8189859D8555
:103A70000E94053669837D8389879D873FA828AC8E
:103A800019AD0AAD33C02AA53BA54CA55DA5632D94
:103A9000722D812F902F0E9405369B01AC010E9450
:103AA00006366B017C0129813D8149855D856BA9C5
:103AB0007CA98DA99EA90E9406369B01AC01C70175
:103AC000B6010E9405376B017C01BBA9B983ECA943
:103AD000ED83FDA9F9872EA92D873AA42BA41CA557
:103AE0000DA504C03A2C2B2C182D092DA7019601E9
:103AF000C301B2010E9406362B013C012E8D3F8D81
:103B000048A159A10E94FB3687FF07C0A30192017B
:103B10006E8D7F8D88A199A11CC02EA53FA548A9B7
:103B200059A9632D722D812F902F0E941D391816CF
:103B300084F52EE333EC4EE259E36E8D7F8D88A140
:103B400099A10E9406366E8F7F8F88A399A3A30147
:103B500092010E9405366B017C01232D322D412FED
:103B6000502F6AA57BA58CA59DA50E94FB3687FDDD
:103B700011CE89819D81A985BD8580934F05909344
:103B80005005A0935105B09352053D8930934A05E5
:103B90000FC089819D81A985BD8580934F05909334
:103BA0005005A0935105B09352054D8940934A05A5
:103BB000E091BD05F091BE059189911104C08091FD
:103BC0001E0183FF3FC0ABADBCAD51968C915197A8
:103BD000807349F19E96CD90DD90ED90FC90D19749
:103BE0009923D1F0209163053091640540916505DA
:103BF0005091660560914F05709150058091510577
:103C0000909152050E945D399B01AC01C701B6013C
:103C10000E945D396B017C01C701B6010E946A25D3
:103C2000809367050AC01092270110922801109214
:103C3000290110922A011092670580911E01877F49
:103C400080931E0147E029893A89429FF001439FF2
:103C5000F00D1124EE56FA4FFA87E9878091670537
:103C6000868320914205309143054091440550914F
:103C70004505632D722D812F902F0E945D39698338
:103C80007A838B839C830E94E4366B017C01609174
:103C90003E0570913F0580914005909141050E943D
:103CA000E4364B015C01A70196010E9405360E9493
:103CB0007E376D837E838F839887ED81FE81A98512
:103CC000BA85ED93FC93EF2B41F480911E0181FFA7
:103CD00004C0816080931E010EC120913A0530918D
:103CE0003B0540913C0550913D05C301B2010E9446
:103CF00006362B013C0129813A814B815C81C5014B
:103D0000B4010E9405369B01AC01C301B2010E94BF
:103D100005374B015C0120EC31EE44E65EE40E9485
:103D20005D390E94E4360E947E37603D37E07307BC
:103D30008105910560F4A7E049895A89A49FF001A3
:103D4000A59FF00D1124EE56FA4F158253C0603A2C
:103D5000BFE07B078105910560F447E029893A8936
:103D6000429FF001439FF00D1124EE56FA4F51E0AF
:103D700011C06034AFE17A078105910568F447E02E
:103D800029893A89429FF001439FF00D1124EE5694
:103D9000FA4F52E055830CC027E0A989BA892A9FBF
:103DA000F0012B9FF00D1124EE56FA4F33E03583CE
:103DB000A7E049895A89A49FF001A59FF00D11241D
:103DC000EE56FA4F2581022E04C096958795779579
:103DD00067950A94D2F74D815E8102C0440F551F4A
:103DE0002A95E2F7518340836115710551E08507FB
:103DF000910568F427E0A989BA892A9FF0012B9FD1
:103E0000F00D1124EE56FA4F7383628304C04FEF16
:103E10005FEF53834283809191058093BC058F5F50
:103E2000863019F08093910502C010929105E091BF
:103E30001906F0911A06832D922DA12FB02F868F8F
:103E4000978FA0A3B1A3C0923E05D0923F05E09208
:103E50004005F092410529813A814B815C81C7017F
:103E6000B6010E940536A50194010E945D39609358
:103E70003A0570933B0580933C0590933D05209156
:103E80004B0530914C0540914D0550914E05632DE9
:103E9000722D812F902F0E94FB368111A5C820E042
:103EA00030E0A901632D722D812F902F0E941D39C2
:103EB00090911E01181614F092FF04C09160909327
:103EC0001E0119C010921A061092190690911C0634
:103ED00080913705891709F487C881E0890F8031FF
:103EE00009F480E020911602921302C0809316021A
:103EF00080931C0679C8EC960FB6F894DEBF0FBE0F
:103F0000CDBFDF91CF911F910F91FF90EF90DF9088
:103F1000CF90BF90AF909F908F907F906F905F9069
:103F20004F903F902F900895CF93DF93C091190643
:103F3000D0911A062097C9F080913905816080934D
:103F4000390560914F057091500580915105909110
:103F500052059B01AC010E945D396A8B7B8B8C8B77
:103F60009D8B10921A0610921906DF91CF91089539
:103F700080915C01682F20915D01422F982F9170F4
:103F800080FD94E0822F817020FD80E261FD9860C9
:103F900041FD806462FD906142FD806890936A05F6
:103FA00080936B0508951F920F920FB60F92112404
:103FB0008F939F938BB190916A059C71837E892B1F
:103FC0008BB915BC9F918F910F900FBE0F901F90D2
:103FD000189580916F008D7F80936F008091810094
:103FE000887F81608093810010926C0580915E01D2
:103FF00090911A018F3F39F420911D06211103C0C1
:10400000903881F402C0943069F090E0009741F05C
:10401000EFE9FFE03197F1F700C000000197F6CF1C
:1040200081E001C080E09091700192FF02C091E0B8
:104030008927882311F0289A089528980895CF9306
:10404000DF930E94E91F80E3E8E3F5E0DF011D92C2
:104050008A95E9F7CDE6D5E083E2FE0111928A95D3
:10406000E9F710921A061092190610929005109214
:10407000BC0581E08093910510926C050E94B81FE9
:1040800080916B058F878BB1837E90916A05892B18
:104090008BB98BB18F7190916B05892B8BB9DF91A7
:1040A000CF9108951F920F920FB60F9211242F9364
:1040B0003F934F935F936F937F938F939F93AF93B0
:1040C000BF93EF93FF9380916C05811122C28BB156
:1040D00090917C05907E8F71892B8BB98BB1837EFB
:1040E00090917B05892B8BB980917A0586BD82E002
:1040F00085BD81E080936C05789480918E059091C8
:104100008F05892B09F0BFC0809190059091BC0567
:10411000981709F4A4C0E09190052E2F30E087E0B5
:10412000E89FF0011124EE56FA4FF0938F05E093CB
:104130008E0582819381909389008093880080818D
:10414000918190938A0580938905E48180918B0504
:104150008E1761F1E0938B0582E1E89FF001112455
:10416000E154FA4FF0938D05E0938C058485958595
:10417000A685B785B695A79597958795809375057C
:1041800090937605A0937705B09378058093710599
:1041900090937205A0937305B093740580936D0599
:1041A00090936E05A0936F05B0937005A0918C0558
:1041B000B0918D0550969C91509780916B05892701
:1041C00080937C0587E0829FF001839FF00D11248E
:1041D000EE56FA4F25814D915D916D917C9113972B
:1041E000022E04C076956795579547950A94D2F7A5
:1041F00040937D0550937E0560937F057093800505
:1042000014964D915D916D917C911797022E04C08B
:1042100076956795579547950A94D2F7409381050F
:1042200050938205609383057093840518968D9151
:104230009D910D90BC91A02D04C0B695A795979522
:1042400087952A95D2F78093850590938605A0934C
:104250008705B093880586810E94072614C00E94B6
:10426000E91FE0918C05F0918D058189882339F053
:104270001092B3008091B0008F778093B00084E0FB
:104280000E94451746C1809119018130B1F486B171
:10429000807290910001891781F0109219018CE0D1
:1042A000E1E0F1E0ADE0B1E001900D928A95E1F737
:1042B00080911E06806480931E0610927B054091BB
:1042C0006D0550916E0560916F057091700580913C
:1042D0007D0590917E05A0917F05B0918005840FAA
:1042E000951FA61FB71F80936D0590936E05A09331
:1042F0006F05B0937005E0918C05F0918D054485B4
:10430000558566857785481759076A077B0768F5DD
:1043100024E020937B054485558566857785841B3D
:10432000950BA60BB70B80936D0590936E05A0932C
:104330006F05B09370052089809101019091020171
:10434000A0910301B091040125FF04C00197A109C8
:10435000B10903C00196A11DB11D80930101909385
:104360000201A0930301B0930401409171055091A3
:10437000720560917305709174058091810590912B
:104380008205A0918305B0918405840F951FA61F17
:10439000B71F8093710590937205A0937305B09336
:1043A00074054485558566857785481759076A07DA
:1043B0007B0778F520917B05286020937B05448559
:1043C000558566857785841B950BA60BB70B809367
:1043D000710590937205A0937305B09374052089BD
:1043E0008091050190910601A0910701B09108010B
:1043F00026FF04C00197A109B10903C00196A11DC0
:10440000B11D8093050190930601A0930701B0931D
:10441000080140917505509176056091770570917E
:1044200078058091850590918605A0918705B091CA
:104430008805840F951FA61FB71F8093750590935D
:104440007605A0937705B0937805448555856685F4
:104450007785481759076A077B0778F520917B0510
:10446000206120937B054485558566857785841B6F
:10447000950BA60BB70B8093750590937605A093CB
:104480007705B093780520898091090190910A0100
:10449000A0910B01B0910C0127FF04C00197A10965
:1044A000B10903C00196A11DB11D8093090190932C
:1044B0000A01A0930B01B0930C0180911A01843082
:1044C00039F490917B0580912001892380937B05AD
:1044D0008091890590918A05019790938A05809330
:1044E0008905892B69F410928F0510928E058091B1
:1044F00090058F5F80939005863011F4109290059F
:1045000090917B0580916A05892780937B051092A5
:104510006C05FF91EF91BF91AF919F918F917F912A
:104520006F915F914F913F912F910F900FBE0F9020
:104530001F9018958091700182FF02C0289A01C0D7
:10454000289880916A0580937B0580915B01880F94
:104550008450819580937A0580916F00826080936A
:104560006F00089590911B01911126C081110EC01A
:1045700010922701109228011092290110922A010D
:104580008091B0008F778093B00014C0803111F417
:104590002D9801C02D9A9091700191FF05C0803235
:1045A00019F440E050E0BA01CB01BA010E946A253B
:1045B0000E940726109225010895CF93DF93C1E151
:1045C000D7E08991882319F00E949327FACFDF91D1
:1045D000CF9108958F929F92AF92BF92CF92DF9228
:1045E000EF92FF920F931F93CF93DF93CDB7DEB778
:1045F0002D970FB6F894DEBF0FBECDBF6B017C01C7
:10460000042F20E030E0A9010E94FB3687FF07C09D
:104610008DE20E949327F7FAF094F7F8F094102FA8
:10462000123060F020E030E048EC52E4C701B601FF
:104630000E945D396B017C011250F2CF00FF0AC06D
:1046400020E030E040E251E4C701B6010E945D394C
:104650006B017C0120E030E040E05FE3C701B60180
:104660000E9406360E94773710E03AE0832E912CA4
:10467000A12CB12C611571058105910591F0EE24F5
:10468000E394F12CEC0EFD1EE10EF11CA50194014A
:104690000E94C335605DF7016083B901CA011F5FE5
:1046A000E9CF80E3101748F4E1E0F0E0EC0FFD1FE4
:1046B000E10FF11D80831F5FF5CF101313C0FE01C2
:1046C000E10FF11D80E381831F5F0CC0101303C055
:1046D0008EE20E949327FE01E10FF11D80810E946E
:1046E000932711501111F2CF2D960FB6F894DEBF1B
:1046F0000FBECDBFDF91CF911F910F91FF90EF9033
:10470000DF90CF90BF90AF909F908F9008952091B1
:10471000700120FF08C02BE832E441E25DE30E9413
:104720005D3941E001C040E00C94EA222091700123
:1047300020FF08C02BE832E441E25DE30E945D39CE
:1047400044E001C043E00C94EA22CF93DF93843627
:1047500030F06AE00E94A335C0E3C90F03C0C0E097
:104760008A3030F06AE00E94A335D0E3D90F01C04F
:10477000D0E0805D0E949327DD2319F08D2F0E94E9
:104780009327CC2329F08C2FDF91CF910C94932782
:10479000DF91CF910895CF93DF93FC018491EF01D6
:1047A0002196882321F00E949327FE01F7CFDF9105
:1047B000CF9108951F93CF93DF93142F20E030E023
:1047C00040EA51E40E945D390E94E4360E947E373F
:1047D000EB012097D1F080911B01811116C01111BE
:1047E00003C00E94C81506C00E94861180911C015A
:1047F00081FD0BC02FEF80E792E021508040904078
:10480000E1F700C000002197E4CFDF91CF911F9125
:10481000089580911E0684FD1FC080E10E94451707
:104820008091B0008F778093B000439890911A01E7
:10483000892F8C7221F480911E01867069F094306A
:1048400031F480911D06811105C086E001C083E02E
:104850000E9435170C94E91F08951F920F920FB60E
:104860000F9211242F933F934F935F936F937F93F6
:104870008F939F93AF93BF93EF93FF9380911A0110
:10488000813049F080911D06811105C00E940924E4
:1048900081E00E943517FF91EF91BF91AF919F91F9
:1048A0008F917F916F915F914F913F912F910F90D9
:1048B0000FBE0F901F90189593B196718091700163
:1048C00086FD02C086E19827992349F091FB88274D
:1048D00080F992FD8260907119F08460089580E003
:1048E0000895EBE6F0E08081897E8083E8E6F0E0E1
:1048F00080818E7F8083089584B1897E84B985B15B
:10490000866185B98091700183FF0BC080916B0037
:10491000866180936B00809168008160809368005D
:1049200008950C94712461E071E088E991E00C94A1
:104930004E179F92AF92BF92CF92DF92EF92FF926B
:104940000F931F93CF93DF935B018A017C01E40EE9
:10495000F51EEC01912C6B01C81AD90AC6018C0F07
:104960009D1FCE15DF0589F00E940F17911008C01A
:10497000292D990C330B232F221F2227221F01C020
:1049800021E0982E920E8993E9CFC501800F911FE7
:104990000E940F1721E030E0981611F020E030E07F
:1049A000C901DF91CF911F910F91FF90EF90DF90A0
:1049B000CF90BF90AF909F9008959F92AF92BF927B
:1049C000CF92DF92EF92FF920F931F93CF93DF93DB
:1049D0005C018A017B01E40EF51EEB01912C6C0158
:1049E000C61AD70ACE018C0D9D1DCE15DF0589F0A4
:1049F000911008C0292D990C330B232F221F222739
:104A0000221F01C021E06991922E960E0E94ED16A0
:104A1000E9CF692DC501800F911FDF91CF911F91C3
:104A20000F91FF90EF90DF90CF90BF90AF909F904D
:104A30000C94ED16CF93DF9321E5829FC0011124E2
:104A4000EC01DD5F40E550E0BE0181E197E00E94AE
:104A50009924892B69F4109211070E94DC1640E515
:104A600050E061E177E0CE010E94DD2480E001C0EA
:104A700081E0DF91CF910895CF93DF93C0E08C2F39
:104A80000E941A2581110EC0109211078EE30E9418
:104A900093270E94DD228AE30E94932787E00E94E9
:104AA000CC2712C080911107882371F00E94B003B7
:104AB000D82F8EE30E9493270E94DD228AE30E9472
:104AC00093278D2F0E94D827CF5FC230C1F6DF9188
:104AD000CF9108954F925F926F927F928F929F92A3
:104AE000AF92BF92CF92DF92EF92FF926B017C0167
:104AF00080906C0190906D01A0906E01B0906F015C
:104B0000409068015090690160906A0170906B015B
:104B1000A3019201C501B4010E941D3987FF19C08C
:104B20006091230170E080E090E00E94AF372AE0BE
:104B300037ED43E25CE30E945D39A70196010E94D4
:104B40005D396B017C01A30192010E941D3987FD33
:104B50000AC0409227015092280160922901709268
:104B60002A018FEF47C0A5019401C701B6010E9439
:104B7000FB361816E4F020E030E0A901C701B601C9
:104B80000E94FB36811109C0109227011092280162
:104B90001092290110922A012DC080922701909233
:104BA0002801A0922901B0922A0181E023C0C0927D
:104BB0002701D0922801E0922901F0922A01A50153
:104BC0009401C701B6010E94053620910D0730916E
:104BD0000E0740910F07509110070E945D390E9407
:104BE000EA3720E030E040E85FE30E9406360E94AA
:104BF0007E37862FFF90EF90DF90CF90BF90AF90E1
:104C00009F908F907F906F905F904F9008958093CA
:104C1000B300811104C08091B0008F7703C08091F0
:104C2000B00080688093B0000895CF93DF93239AFB
:104C3000C0EBD0E083E0888384E08093B100259AC4
:104C400020916C0130916D0140916E0150916F0186
:104C5000609168017091690180916A0190916B0186
:104C60000E9405369B01AC0160E070E08EE793E4A2
:104C70000E94053760930D0770930E0780930F070E
:104C80009093100788818F778883DF91CF91089563
:104C90006AE080E090E00E94ED1645E550E06BE2AE
:104CA00071E081E090E00C94DD240F931F93CF938B
:104CB000C82F8B010E94DC162DE0C29FC001112479
:104CC0004CE050E0B8019E5FCF911F910F910C9482
:104CD000DD241F93CF93DF93182FEB018DE0189FF6
:104CE000B00111247E5F4CE050E0CE010E94992477
:104CF000892B59F48CE0FE0111928A95E9F7BE01E7
:104D0000812F0E94552680E001C081E0DF91CF9184
:104D10001F910895EF92FF920F931F93CF93DF930C
:104D2000CDB7DEB72C970FB6F894DEBF0FBECDBF60
:104D3000182F80FF0BC085E5E1E2F3E0ABE2B1E0C4
:104D400005900D928A95E1F70E94482611FF10C048
:104D5000CE0101967C018CE0F70111928A95E9F76A
:104D600000E0B701802F0E9455260F5F0830C9F779
:104D700012FF14C060E080E093E00E94ED1660E056
:104D800081E093E00E94ED1660E081E593E00E94EF
:104D9000ED1660E082E593E00E94ED1613FF0AC075
:104DA00060E08EEA93E00E94ED1660E08FEA93E007
:104DB0000E94ED162C960FB6F894DEBF0FBECDBF45
:104DC000DF91CF911F910F91FF90EF9008951F9267
:104DD0000F920FB60F9211242F933F934F935F932F
:104DE0006F937F938F939F93AF93BF93EF93FF93B3
:104DF000E091C600E13271F028F4E83179F40E94C4
:104E0000092456C0EF3321F0EE3741F482E003C0AD
:104E100081E001C088E00E9445174AC0E7FF37C023
:104E20008E2F90E0FC01E458F109ED31F10508F016
:104E30003FC0E659FF4F0C94E53580E2ECCF8091FE
:104E40001A0185FF35C080E4E6CF81E00DC082E025
:104E50000BC084E009C088E007C080E105C080E2A3
:104E600003C080E401C080E80E942C1721C081E0CB
:104E70000BC082E009C084E007C088E005C080E183
:104E800003C080E201C080E40E94231711C0A091FA
:104E9000A10681E08A0F813809F480E09091A00694
:104EA000891731F0B0E0A15EB94FEC938093A10671
:104EB000FF91EF91BF91AF919F918F917F916F91F2
:104EC0005F914F913F912F910F900FBE0F901F90C8
:104ED00018951F920F920FB60F9211248F939F93E4
:104EE000EF93FF9380910C07E82FF0E0ED55F94F19
:104EF00090819093C6008F5F893609F480E080939B
:104F00000C079091A206891305C08091C1008F7D86
:104F10008093C100FF91EF919F918F910F900FBEF1
:104F20000F901F901895E091A20691E09E0F993680
:104F300031F490E004C020911E0624FD0FC02091A2
:104F40000C072917C1F3F0E0ED55F94F80839093DA
:104F5000A2068091C10080628093C10008950F93E2
:104F60001F93CF938C01C0E0F80161917191819101
:104F700091918F010E949623C23019F08CE20E9419
:104F80009327CF5FC33081F7CF911F910F91089581
:104F900081E193E00C94CB23CF93C82F8AE193E077
:104FA0000E94CB238C2F0E94A523CF910C94C8275D
:104FB000811104C08CE093E00C94CB230C94CC279B
:104FC000CF92DF92EF92FF92CF93DF93D82F6A01B7
:104FD0007B01C22F84E20E9493278D2F0E94A5237C
:104FE0008DE30E9493274C2FC701B6010E94EA224D
:104FF000DF91CF91FF90EF90DF90CF900C94C82776
:10500000CF93DF93D82FC62F84E20E9493278D2F52
:105010000E94A5238DE30E9493278C2F0E94A52335
:10502000DF91CF910C94C827EF92FF920F931F93BB
:10503000CF93DF9360915B0170E080E00E940028D5
:1050400060915E0170E081E00E94002860915C0147
:1050500070E082E00E94002860915D0170E083E0D2
:105060000E9400286091700162FB662760F970E081
:1050700084E00E9400286091700166FB662760F959
:1050800070E085E00E94002880917001082E000CDD
:10509000990B692F661F6627661F70E086E00E94E5
:1050A000002860915F0170E08AE00E940028409132
:1050B000600150916101609162017091630123E090
:1050C0008BE00E94E027409164015091650160915E
:1050D00066017091670123E08CE00E94E0276091F7
:1050E0007001617070E08DE00E9400286091700195
:1050F00065FB662760F970E084E10E9400286091FA
:10510000700163FB662760F970E085E10E9400286A
:10511000609170016295617070E086E10E940028E4
:105120006091710170E087E10E9400284091720156
:1051300050917301609174017091750123E088E1D1
:105140000E94E027409176015091770160917801AB
:105150007091790123E089E10E94E02760917A0152
:1051600070917B018AE10E94002840917C0150915E
:105170007D0160917E0170917F0123E08BE10E94AF
:10518000E027409168015091690160916A01709136
:105190006B0120E08EE10E94E02740916C0150916C
:1051A0006D0160916E0170916F0120E08FE10E94AE
:1051B000E027609170016695617070E080E20E9466
:1051C0000028D4E6F12C0BE211E083E0E82EED0E8E
:1051D000CD2F82E0F81691F0E3E0FE16E9F0F1E061
:1051E000FF1631F0F80140815181628173811AC04C
:1051F000F801448555856685778514C020E030E048
:1052000041E655E4F801608D718D828D938D0E9489
:105210000537AB01BC0106C0F80144A155A166A148
:1052200077A1705823E08C2F0E94E0270C5F1F4F5E
:10523000CF5FEC12CECFD65FF394DC3821F6DF914E
:10524000CF911F910F91FF90EF9008958DE50E94EF
:1052500093270C94C8278F929F92AF92BF92CF92C0
:10526000DF92EF92FF920F931F93CF93DF937C0116
:105270006B01DC01CC91D0E0FE01EF5EF84F808144
:105280008D3229F4EF012296818101E009C08B3231
:1052900019F0CE5ED84F03C0EF012296818100E065
:1052A000912CF0E010E020E030E0A9015E01E0ED9B
:1052B000E80FEA30D0F4FF5FF93098F49110115004
:1052C000A5E0B0E00E94EB35DC01CB01880F991F0F
:1052D000AA1FBB1F9C01AD012E0F311D411D511D89
:1052E0000AC0911008C01F5F06C0EE3F41F4911044
:1052F00006C0992493942196D5018C91D7CFFF2392
:1053000009F44FC0CA01B9010E94AD374B015C01DD
:1053100020E030E0A9010E94FB36882349F11F3FBD
:1053200064F42AE037ED43E25CE3C501B4010E9476
:105330005D394B015C011E5FF2CF1F3F59F42DEC2C
:105340003CEC4CEC5DE3C501B4010E945D394B01BE
:105350005C010EC0112361F020E030E040E251E436
:10536000C501B4010E945D394B015C011150F2CFBF
:10537000002351F0B7FAB094B7F8B094F6018082E8
:105380009182A282B38206C0D6018D929D92AD9287
:10539000BC921397C151D740C150F701C08381E03F
:1053A00001C080E0DF91CF911F910F91FF90EF90AE
:1053B000DF90CF90BF90AF909F908F9008952F92E5
:1053C0003F924F925F926F927F928F929F92AF9295
:1053D000BF92CF92DF92EF92FF920F931F93CF93E2
:1053E000DF93CDB7DEB7C454D1090FB6F894DEBF52
:1053F0000FBECDBF3B0130913705232E312C22E368
:10540000229DA001239D500D1124BA01695E7D4F9C
:105410007AAF69AFFB0111922A95E9F7F301208574
:10542000FB01218BF3014481558166817781E9ADD0
:10543000FAAD46A757A760AB71AB21FF40C02CE087
:10544000E1E0F1E0DE01599601900D922A95E1F735
:105450008BAB9CAB6BE271E07EAB6DABCE010D967E
:1054600023969FAF8EAF2397FE0179962196FFAFCB
:10547000EEAF2197F2E33F9FC00111249C01295E0A
:105480003D4F3EAF2DAFBE016B5D7F4F7CAF6BAF2D
:1054900078AF6FAB10E082E3829D9001839D300D69
:1054A0001124C901895E9D4FFC013C962596FFAFF2
:1054B000EEAF25972C01F0E14F0E511C3CC02CE0C3
:1054C000EAEFF1E0BFCFEDADFEAD21933193419313
:1054D0005193FEAFEDAF2596EEADFFAD2597C080A1
:1054E000D180E280F380C216D306E406F50610F4FC
:1054F00069017A012596EEADFFAD2597C082D18274
:10550000E282F3820E94AF37A50194010E94053721
:10551000EFA9F8AD6193719381939193F8AFEFABDD
:1055200020E030E0A9010E94FB3687FD42C01F5FEA
:10553000133009F44CC0EBA9FCA9619171918191E0
:105540009191FCABEBABEDA9FEA981909190A1905C
:10555000B190FEABEDABA50194010E945D390E94B4
:105560002A392396EEADFFAD239761937193819312
:1055700091932396FFAFEEAF23972196EEADFFAD4B
:105580002197C190D190E190F1902196FFAFEEAFBD
:1055900021976C197D098E099F099B01AC0197FF2A
:1055A00092CF22273327A901261B370B480B590B13
:1055B0008ACF112321F0113021F080E803C080E26E
:1055C00001C080E4F2019081892B8083B0CFCD2887
:1055D000CE28CF2809F496C1CE0185960E94B43218
:1055E0004B015C0182E3829D8001839D100D11249B
:1055F000095E1D4FF801868E978EA0A2B1A2BE0152
:105600006B5D7F4F83E491E00E945E32F801628F10
:10561000738F848F958FBE016B5D7F4F87E391E021
:105620000E945E32F80166A377A380A791A7F18854
:10563000F0FC12C0F3012081318142815381F3FCDF
:1056400006C0F80122A733A744A755A709C0C50182
:10565000B4010E945D39F80162A773A784A795A7DA
:105660009091370580911C06981711F0F1FE0DC03E
:1056700082E3829DF001839DF00D1124E95EFD4FD0
:10568000128A138A148A158A54C026E032E03CAB91
:105690002BAB8E010F5F1F4FBE016F5C7F4F7AAB4C
:1056A00069ABC12CD12C76010DAB1FABEBA9FCA9CA
:1056B00081909190A190B190FCABEBABEBADFCADC8
:1056C0004190519061907190FCAFEBAFA3019201BA
:1056D000C501B4010E945D399B01AC01C701B6014F
:1056E0000E9405366B017C01A5019401C301B20142
:1056F0000E940536F80161937193819391938F0114
:1057000029A93AA96BAD7CAD2617370779F62FEE9C
:105710003FEF4FE75FE3C701B6010E941D3918163E
:105720006CF482E3829DF001839DF00D1124E95E0B
:10573000FD4F12A213A214A215A271C02FEE3FEFCB
:105740004FE75FEBC701B6010E94FB3687FF11C030
:1057500082E3829DF001839DF00D1124E95EFD4FEF
:1057600089E996E7A6E9BEE782A393A3A4A3B5A31C
:1057700056C08DA99FA90E94B4326DA97FA983E468
:1057800091E00E945E324B015C01A701960160E04E
:1057900070E080E89FE30E94053620E030E040E0C2
:1057A0005FE30E945D390E94FC396B017C0120910E
:1057B0006001309161014091620150916301C50126
:1057C000B4010E945D39A70196010E945D394B0129
:1057D0005C01A701960160E070E080E89FE30E9411
:1057E00005369B01AC01C501B4010E9405376B0170
:1057F0007C0120E030E0A9010E94FB3687FF03C056
:10580000C12CD12C760182E3829DF001839DF00DA5
:105810001124E95EFD4FC2A2D3A2E4A2F5A282E365
:10582000829D8001839D100D1124095E1D4FF8019A
:10583000818981FD69C089AD9AAD0E94CF016B015C
:105840007C018090120290901302A0901402B090FC
:105850001502A50194010E941D3918162CF4A5010A
:105860009401C501B40104C0A7019601C701B601A6
:105870000E945D39F801668B778B808F918F82E370
:10588000829D8001839D100D1124095E1D4FF8013A
:1058900082A093A0A4A0B5A0A501940166897789F0
:1058A000808D918D0E941D3918162CF4F801868A7E
:1058B000978AA08EB18EC0921202D0921302E0920B
:1058C0001402F09215028CE0FE01B596A6E0B2E05B
:1058D00001900D928A95E1F78CE0FE013D96AAEFCA
:1058E000B1E001900D928A95E1F780911B068093BB
:1058F00037058F5F803109F480E080931B060E949A
:10590000630202C080E001C081E0CC5BDF4F0FB6D4
:10591000F894DEBF0FBECDBFDF91CF911F910F91E5
:10592000FF90EF90DF90CF90BF90AF909F908F90BF
:105930007F906F905F904F903F902F900895CF93FE
:10594000DF93CDB7DEB761970FB6F894DEBF0FBE19
:10595000CDBF8091C00082608093C0001092C500CE
:1059600080E18093C4008091C10088698093C10068
:1059700080E090E00E940F178A3009F038C545E5B5
:1059800050E061E070E08BE291E00E949924892B65
:1059900009F42DC58AB18C618AB9209A8AB1806ECA
:1059A0008AB9809181008F7E8093810080918100EF
:1059B000886080938100809180008C7F809380003C
:1059C000809180008F708093800080916E00887F2E
:1059D00080936E0014BC15BC80916E008160809332
:1059E0006E0087B1887F87B988B1876088B9809158
:1059F0006C00876080936C00809168008260809367
:105A000068008CE0E1E0F1E0DF011D928A95E9F7A2
:105A1000789410921A018091700184FF03C081E094
:105A200080931A01AAE12A2EA1E03A2E9924939498
:105A300080911A0191E1F10111929A95E9F7809311
:105A40001A0184E68093210180932201809323012F
:105A50008CE0ADE0B1E01D928A95E9F71092190152
:105A600010921E0610921D0610926805109269058C
:105A70008091A1068093A00680E4E0E8F1E0119215
:105A80008A95E9F764EA71E080E00E946926811155
:105A900003C087E00E94CC270E9415263B9A4398BA
:105AA0000E947C243D98459A80E00E9463110E94E8
:105AB00052020E941F200E9475110E9493248AE5C1
:105AC00091E00E94CB238091700183FF10C00E945F
:105AD0005C24882361F090921A0183EA92E00E948C
